{
  "contractName": "Greeting",
  "abi": [
    {
      "inputs": [],
      "name": "greeting",
      "outputs": [
        {
          "internalType": "string",
          "name": "",
          "type": "string"
        }
      ],
      "stateMutability": "view",
      "type": "function",
      "constant": true
    },
    {
      "inputs": [],
      "name": "sayHello",
      "outputs": [
        {
          "internalType": "string",
          "name": "",
          "type": "string"
        }
      ],
      "stateMutability": "view",
      "type": "function",
      "constant": true
    },
    {
      "inputs": [
        {
          "internalType": "string",
          "name": "_greeting",
          "type": "string"
        }
      ],
      "name": "updateGreeting",
      "outputs": [],
      "stateMutability": "nonpayable",
      "type": "function"
    }
  ],
  "bytecode": "0x60806040526040518060400160405280600581526020017f68656c6c6f0000000000000000000000000000000000000000000000000000008152506000908051906020019061004f929190610062565b5034801561005c57600080fd5b50610166565b82805461006e90610134565b90600052602060002090601f01602090048101928261009057600085556100d7565b82601f106100a957805160ff19168380011785556100d7565b828001600101855582156100d7579182015b828111156100d65782518255916020019190600101906100bb565b5b5090506100e491906100e8565b5090565b5b808211156101015760008160009055506001016100e9565b5090565b7f4e487b7100000000000000000000000000000000000000000000000000000000600052602260045260246000fd5b6000600282049050600182168061014c57607f821691505b602082108114156101605761015f610105565b5b50919050565b610485806101756000396000f3fe608060405234801561001057600080fd5b50600436106100415760003560e01c80632867cc4414610046578063ef5fb05b14610062578063ef690cc014610080575b600080fd5b610060600480360381019061005b91906102e6565b61009e565b005b61006a6100b4565b60405161007791906103cc565b60405180910390f35b610088610146565b60405161009591906103cc565b60405180910390f35b8181600091906100af9291906101d4565b505050565b6060600080546100c39061041d565b80601f01602080910402602001604051908101604052809291908181526020018280546100ef9061041d565b801561013c5780601f106101115761010080835404028352916020019161013c565b820191906000526020600020905b81548152906001019060200180831161011f57829003601f168201915b5050505050905090565b600080546101539061041d565b80601f016020809104026020016040519081016040528092919081815260200182805461017f9061041d565b80156101cc5780601f106101a1576101008083540402835291602001916101cc565b820191906000526020600020905b8154815290600101906020018083116101af57829003601f168201915b505050505081565b8280546101e09061041d565b90600052602060002090601f0160209004810192826102025760008555610249565b82601f1061021b57803560ff1916838001178555610249565b82800160010185558215610249579182015b8281111561024857823582559160200191906001019061022d565b5b509050610256919061025a565b5090565b5b8082111561027357600081600090555060010161025b565b5090565b600080fd5b600080fd5b600080fd5b600080fd5b600080fd5b60008083601f8401126102a6576102a5610281565b5b8235905067ffffffffffffffff8111156102c3576102c2610286565b5b6020830191508360018202830111156102df576102de61028b565b5b9250929050565b600080602083850312156102fd576102fc610277565b5b600083013567ffffffffffffffff81111561031b5761031a61027c565b5b61032785828601610290565b92509250509250929050565b600081519050919050565b600082825260208201905092915050565b60005b8381101561036d578082015181840152602081019050610352565b8381111561037c576000848401525b50505050565b6000601f19601f8301169050919050565b600061039e82610333565b6103a8818561033e565b93506103b881856020860161034f565b6103c181610382565b840191505092915050565b600060208201905081810360008301526103e68184610393565b905092915050565b7f4e487b7100000000000000000000000000000000000000000000000000000000600052602260045260246000fd5b6000600282049050600182168061043557607f821691505b60208210811415610449576104486103ee565b5b5091905056fea2646970667358221220164c09cb4171feb089fe704dca48fe46b1edaec70540510b90677cdfaf5c9e4264736f6c634300080a0033",
  "immutableReferences": {},
  "source": "// SPDX-License-Identifier: MIT\npragma solidity >=0.4.22 <0.9.0;\n\ncontract Greeting {\n  \n  string public greeting = \"hello\";\n\n  function sayHello() external view returns (string memory) {\n      return greeting;\n  }\n\n  function updateGreeting(string calldata _greeting) external {\n      greeting = _greeting;\n  }\n}",
  "sourcePath": "C:\\Users\\Codemaker\\Downloads\\DappTuto-master\\DappTuto-master\\contracts\\Greeting.sol",
  "compiler": {
    "name": "solc",
    "version": "0.8.10+commit.fc410830.Emscripten.clang"
  },
  "schemaVersion": "3.4.4",
  "updatedAt": "2022-01-10T11:17:39.954Z",
  "networkType": "ethereum",
  "devdoc": {
    "kind": "dev",
    "methods": {},
    "version": 1
  },
  "userdoc": {
    "kind": "user",
    "methods": {},
    "version": 1
  }
}